:020000040800F2
:10000000FCFF002031270000152700001527000005
:1000100015270000152700001527000015270000F0
:1000200015270000152700001527000015270000E0
:1000300015270000152700001527000015270000D0
:1000400015270000152700001527000015270000C0
:1000500015270000152700001527000015270000B0
:1000600015270000152700001527000015270000A0
:100070001527000015270000152700001527000090
:100080001527000015270000152700001527000080
:100090001527000015270000152700001527000070
:1000A0001527000015270000152700001527000060
:1000B0001527000015270000152700001527000050
:1000C0001527000015270000152700001527000040
:1000D0001527000015270000152700001527000030
:1000E0001527000015270000152700001527000020
:1000F0001527000015270000152700001527000010
:1001000015270000152700001527000015270000FF
:1001100015270000152700001527000015270000EF
:1001200015270000152700001527000015270000DF
:1001300015270000152700001527000015270000CF
:1001400015270000152700001527000015270000BF
:1001500081B000F218010A68C2F3400181F0010188
:10016000C9B2C8B201B0704701480068704700BF0B
:100170002802002083B0CDF800E000F0FF031A0948
:10018000104603F00F02134614E0194A02921FE0D2
:10019000184A02921CE0184A029219E0174A029289
:1001A00016E0174A029213E0164A029210E0164A2D
:1001B00002920DE00028E8D00128E9D00228EAD018
:1001C0000328EBD00428ECD00528EDD00628EED08B
:1001D000012212B29A40ADF8042002980A46BDF8F6
:1001E000041000F06DFEDDF800E003B0704700BFC2
:1001F00000080140000C01400010014000140140C3
:1002000000180140001C01400020014081B000F2B4
:1002100014010A6800F218010968090442EA0101A0
:10022000084601B07047FFFF82B0CDF800E0CFB2C2
:1002300001469846029B4FF000064FF00005C44C63
:10024000A14207D1C34CD4F80090C34C2568C34CDD
:1002500025600BE0C24CA14207D1C24C2068C24CC1
:100260002568BE4C2560814600E0A946BF4CC4F815
:100270000090F4E101F210057C00A4B244F0010406
:10028000A4B22C60019616464F46019A01F214045E
:100290002568C5F3400464B9B44C246844B127B957
:1002A0000320AE4C2468A047E2E1781E0746FFE732
:1002B000ECE700250C6865F38A240C6001F2140455
:1002C000206800BF01F218042468240440EA0404F2
:1002D0002046012B05D101250C6865F349240C60EB
:1002E00004E001250C6865F308240C609F4C256828
:1002F0009146984637460E469D49304600F02EFA04
:1003000068B99A4C24684CB125B90320934C2468F1
:10031000A047ADE16C1E20460546FFE7ECE707EB82
:10032000090506F2100424682C70B8F1010F13D1EE
:100330008E4C216830460568C5F340245CB98B4C6F
:1003400024683CB121B90320844C2468A0478FE184
:10035000491EFFE7EFE712E0844C2168304605684C
:10036000C5F300245CB9814C24683CB121B9032059
:100370007A4C2468A0477BE1491EFFE7EFE777E16D
:1003800001250C6865F38A240C6001250C6865F36F
:10039000CB240C6001F210057C00A4B244F00104EF
:1003A000A4B22C604F4601F214042568C5F3400442
:1003B00064B96E4C246844B127B90320674C2468A3
:1003C000A04755E1781E0746FFE7ECE701F2140469
:1003D000206800BF01F2180424682404204300258B
:1003E0000C6865F38A240C60604C276801F21404E1
:1003F0002568C5F3800464B95C4C246844B127B90E
:100400000320564C2468A04732E1781E0746FFE7D8
:10041000ECE7012B05D101250C6865F349240C603C
:1004200004E001250C6865F308240C60951901F2BD
:10043000100424682C70741C151901F2100424682F
:100440002C70012B14D1494C22680D68C5F340244F
:1004500064B9464C246844B122B903203F4C246857
:10046000A04705E1501E0246FFE7EEE7084613E00D
:100470003E4C22680D68C5F3002464B93B4C2468E7
:1004800044B122B90320354C2468A047F0E0501E47
:100490000246FFE7EEE708460025046865F3CB2433
:1004A0000460E5E001250C6865F38A240C6001F224
:1004B00010057C00A4B244F00104A4B22C604646AE
:1004C000C846894617461D462A49484600F046F95F
:1004D00078B9264C24685CB1B8F1000F04D1032030
:1004E0001E4C2468A047C3E0A8F101008046FFE746
:1004F000EAE70021A8464A46B1463B46A9F1030473
:10050000A14222D2194C25688A4617461E46184930
:10051000384600F023F960B9144C246844B125B979
:1005200003200E4C2468A047A2E0681E0546FFE7A2
:10053000EDE706EB0A0507F2100424682C700AF1B7
:100540000104214633463A46D8E7084C00F014B877
:100550000054004000020020300200202C02002045
:10056000005800400402002034020020080200204D
:100570004000030002000300276801930B46164663
:100580004246019906F214042568C5F3800464B953
:10059000394C246844B127B90320384C2468A0475B
:1005A00066E0781E0746FFE7ECE70025346865F350
:1005B0008A243460CD1806F2100424682C70581C6C
:1005C0002D4C23681746024606F214042568C5F32D
:1005D000800464B9284C246844B123B90320274C13
:1005E0002468A04744E0581E0346FFE7ECE7012FCC
:1005F00007D10125346865F349243460104632463A
:1006000021E00125346865F3082434601A4CD4F8DD
:10061000008017460D461A49304600F09FF878B919
:10062000154C24685CB1B8F1000F04D10320134CC1
:100630002468A0471CE0A8F101008046FFE7EAE734
:100640002946324638460D1802F2100424682C70F0
:10065000441C0D1902F2100424682C7008E0B8F153
:10066000010F3FF407AEB8F1020F3FF489AE19E76E
:10067000DDF800E002B07047080200202C020020E4
:100680000100030001490860704700BF98812142C2
:1006900001490860704700BFA481224201490860F7
:1006A000704700BFA081224201490860704700BF27
:1006B0008C01224201490860704700BF9401214229
:1006C00001490860704700BF9C81214201490860D0
:1006D000704700BFA881224201490860704700BFEF
:1006E000B481224201490860704700BF880122425C
:1006F00001490860704700BF90012142014908602C
:10070000704700BFA801224201490860704700BF3E
:100710008001214201490860704700BFB0012242B8
:1007200001490860704700BFAC01224201490860DE
:10073000704700BF9881214201490860704700BF9F
:100740009481224201490860704700BF988122428B
:1007500001490860704700BF9C81214281B0CDF8FB
:1007600000E00B46FFF752FD00EA03029A4240F216
:10077000000200D10122D0B2DDF800E001B07047E4
:1007800081B0CDF800E008B413460A46C1B204486F
:10079000FFF74AFD01B0DDF800E001B0704700BF8F
:1007A0000054004081B0CDF800E04FF0000219493C
:1007B000884207D118490B6818490A6818490A6025
:1007C0001C460BE01749884207D117490B681749A7
:1007D0000A6813490A601C4600E0144614490C607C
:1007E00003461846FFF7B4FC70B91149096851B1C6
:1007F0002CB905200A4C2468A047002005E0611EA2
:1008000008460446FFE7ECE70120DDF800E001B010
:10081000704700BF0054004000020020300200205A
:100820002C02002000580040040200203402002066
:100830000802002001490860704700BFA801224259
:1008400001490860704700BFB881224281B0CDF8ED
:1008500000E008B413460A46C1B20448FFF7E4FCBE
:1008600001B0DDF800E001B0704700BF0058004063
:1008700001490860704700BFAC012242014908608D
:10088000704700BFB081224201490860704700BF35
:10089000B081224201490860704700BFB001224286
:1008A00081B0194900EA0101084600220EE0042047
:1008B00022E0082020E010201EE020201CE0402044
:1008C0001AE0802018E040F2001015E00F4988423D
:1008D000EDD00F498842ECD00E498842EBD00E494A
:1008E0008842EAD00D498842E9D00D498842E8D0D3
:1008F0000C498842E7D010460B49096841EA0002DA
:1009000009490A6001B0704700FCFFFF0008014080
:10091000000C01400010014000140140001801408B
:10092000001C0140002001401810024082B0CDF8A8
:1009300000E0034619460191FFF716FC40F2E8314A
:1009400000FB01F201990A601F490978C1F3031104
:10095000C8B21E4909180878C0B21A1D1968C140EA
:10096000116019490988C1F3022188B21749091891
:100970000878C0B203F20802191D0968C14011606D
:1009800011490988C1F3C22188B2104909180878B1
:10099000C0B203F20C02191D0968C14011600A4976
:1009A0000988C1F3813188B2094909180978C8B2A8
:1009B00003F2100203F20C010968B1FBF0F11160BF
:1009C000DDF800E002B0704704100240B02C0000D7
:1009D000D02C000081B0CDF800E0012252B23E4997
:1009E0000A6000F268010B686FF0006103EA01021F
:1009F000144603F00061C90E0B4602F00041B1F14C
:100A0000004F02D135490A6801E035490A6804F40B
:100A10007021090C0E464FF6FF7104EA01010D46E4
:100A200004F44011B1F5401F0DD16FF0706102EA7E
:100A300001010E462A490A686FF070610A40284990
:100A40000A60324616E004F48011B1F5801F09D126
:100A50004FF00301B140C94302EA010141F0706166
:100A60000A4607E0610D090105FA01F1C9430A4090
:100A700042F070622BB1610D090105FA01F10A43E0
:100A8000FFE704F00041B1F1004F02D113490A60C1
:100A900001E013490A6040F2000A81464FEA8A01E8
:100AA00009EB01010968B1F1FF3F10D009F13401F0
:100AB0004FEA8A03C91809680A4609EB0301096865
:100AC00008461146FFF756FB0AF1010AE6E7DDF892
:100AD00000E001B0704700BF000342421C0001402B
:100AE0000400014089B0CDF800E0834698B28C46FE
:100AF000BDF824100A9E04ACADF80410ADF808004F
:100B00002046FFF713FFBDF80800BDF80410644C41
:100B1000A34512D101256DB2624C2560624D634C34
:100B20002560634D634C2560634D644C2560644DC6
:100B3000644C2560079C039456E0634CA34512D196
:100B400001256DB2614C2560614D584C2560614DA9
:100B5000584C2560604D594C2560604D594C2560BE
:100B6000069C039440E05E4CA34512D101256DB272
:100B70005C4C25605C4D4D4C25605C4D4D4C2560BA
:100B80005B4D4E4C25605B4D4E4C2560069C03949E
:100B90002AE0594CA34512D101256DB2574C25606E
:100BA000574D424C2560574D424C2560564D434CA5
:100BB0002560564D434C2560069C039414E0544C2C
:100BC000A34511D101256DB2524C2560524D374CD1
:100BD0002560524D374C2560514D384C2560514DA4
:100BE000384C2560069C0394ADF80410ADF808005D
:100BF0003046FFF7EFFEBDF80800BDF804100BF11A
:100C0000100500242C600BF110052C680C432C609F
:100C10000BF10C0500242C6018B140F4806080B208
:100C2000FFE70BF10C052C6804432C600BF10C065C
:100C30000125346865F34D3434600BF10C06012551
:100C4000346865F3C30434600BF10C060125346885
:100C500065F3820434600BF1140500242C60039DBD
:100C6000192465434FEA8C04B5FBF4F76424B7FB01
:100C7000F4F42601350964246C433C1B240104F27E
:100C800032056424B5FBF4F404F00F0446EA0404CE
:100C90000BF10805A4B22C60DDF800E009B0704744
:100CA0000038014038034242891400004402002009
:100CB0002517000048020020F11300004C0200201C
:100CC000A91300005002002000440040C403424227
:100CD0006D140000D913000009140000391400003D
:100CE00000480040C8034242511400002114000093
:100CF00091130000C1130000004C0040CC0342429D
:100D0000A5140000C1150000A915000091150000F0
:100D100000500040D003424251150000D915000098
:100D20002D1600001516000082B0CDF800E0029EDE
:100D30004FF00005564CA04206D1564C2768564C41
:100D40002568564C25600AE0554CA04206D1554C0A
:100D50002768554C2568514C256000E02F46534CC0
:100D6000276000F210054C00A4B22C60B94607467B
:100D7000904635461E464E493846FFF7EFFC88B987
:100D80004A4C24686CB1B9F1000F06D10420434CE1
:100D90002468A0474FF6FF7076E0A9F10100814674
:100DA000FFE7E8E70020019729463746019E7C1EB1
:100DB000A04226D206F2100508EB000424782C602D
:100DC0003A4CD4F8009082460D463A493046FFF737
:100DD000C5FC88B9354C24686CB1B9F1000F06D157
:100DE00004202E4C2468A0474FF6FF704CE0A9F178
:100DF00001008146FFE7E8E70AF1010420462946A1
:100E0000D5E706F2100508EB000424782C60274C87
:100E100027680D4628493046FFF7A0FC70B9234CDF
:100E2000246854B137B904201C4C2468A0474FF6FD
:100E3000FF7029E0781E0746FFE7EBE7012D05D19B
:100E40000125346865F3492434601CE001253468C9
:100E500065F308243460154C276835461749284641
:100E6000FFF77CFC78B9114C24685CB137B90420D9
:100E70000A4C2468A0474FF6FF7005E07C1E204610
:100E80000746FFE7EAE70020DDF800E002B0704720
:100E90000054004000020020300200202C020020FC
:100EA0000058004004020020340200200802002004
:100EB0008200070080000700840007000100030093
:100EC00081B0CDF800E08CB21546774B00EA030301
:100ED0001E461846FFF7E4FCB4F1FF0F0CD1734B2C
:100EE0009D4203D14FF033333360D9E0422D03D11B
:100EF0004FF044333360D3E04FF6FF739C4214D17C
:100F00006A4B9D4207D14FF033333360341D4FF0AD
:100F100033332360C4E0422D07D14FF044333360B4
:100F2000341D4FF044332360BAE00021002005F067
:100F300001030BB100211DE005F0020333B105F4FC
:100F4000C0730BB1082100E0042113E005F0040395
:100F500033B105F020030BB1042100E0002109E0CA
:100F600005F0080333B105F020030BB10C2100E0BC
:100F70000821FFE74E4B05EA03030BB1032009E00C
:100F800005F400730BB1022004E005F480630BB19B
:100F90000120FFE705F00C030BB10143FFE704F06C
:100FA000FF039BB2002B3BD0376800201FFA84F868
:100FB00032462E4608282CD24FF0010303FA00F4E3
:100FC00008EA0403A34222D185004FF00F03AB408F
:100FD000DB4307EA030401FA05F344EA03031D4671
:100FE00006F48173B3F5817F05D102F214044FF04A
:100FF00001038340236006F08203822B05D102F2B5
:1010000010044FF00103834023602F46FFE7401C8C
:10101000D0E717601FFA88F00F463146164602E007
:101020000F462946A0B2B0F1FF0F39D9331DD3F8CE
:1010300000800022082A30D202F208044FF0010397
:1010400003FA04F400EA0403A34224D195004FF00C
:101050000F03AB40DB4308EA030807FA05F348EA4D
:10106000030801F48173B3F5817F07D106F21405FB
:1010700002F208044FF00103A3402B6001F0820349
:10108000822B07D106F2100502F208044FF001038B
:10109000A3402B60FFE7521CCCE7331DC3F8008050
:1010A000DDF800E001B0704700FCFFFF140008000D
:1010B0000008080081B00268C2F3401101B9FAE7E4
:1010C000011D096888B201B07047FFFF82B0CDF8FA
:1010D00000E040F20004ADF80440044C2468A0474E
:1010E000BDF90400DDF800E002B070475C020020AA
:1010F00088B0CDF800E00E46554B98420DD1012442
:1011000064B2544B1C60544C544B1C60544C554BB3
:101110001C60554C554B1C600FE0554B98420CD150
:10112000012464B2534B1C60534C4C4B1C60534C19
:101130004C4B1C60524C4D4B1C600196029010466B
:10114000FFF748FC0298019E031D1B689CB26FF0DC
:101150003F0304EA03039DB203AB01901846FFF777
:10116000E5FB0198059F059C464BB4FBF3F399B250
:101170009BB245EA0304A4B2031D1C60002403686B
:1011800064F30003036000223F4B9E4212D87300B9
:10119000B7FBF3F4A4B2042C02D204231C46FFE7ED
:1011A00042EA04039AB200F220044B1C9BB2236073
:1011B00091B23FE0032306FB03F4B7FBF4F31FFAFD
:1011C00083F8192306FB03F5B7FBF5F31FFA83F940
:1011D00008FB04F409FB05F33C1BFB1A9C4205D2F7
:1011E00003237343B7FBF3F4A4B206E0192373435C
:1011F000B7FBF3F4A4B244F4804440F6FF7304EA6E
:10120000030313B944F00104FFE744F400439BB225
:101210001A4392B200F2200540F22C1301FB03F4B2
:10122000A4B240F2E833B4FBF3F39BB25B1C9BB275
:101230002B6091B200F21C031960002303600124AB
:10124000036864F300030360DDF800E008B0704752
:1012500000540040D4034242A5160000380200208A
:10126000810700003C020020F11500004002002030
:1012700000580040D80342420D1700004D080000FE
:101280006D15000040420F00A086010083B0CDF82C
:1012900000E003464FF0000026498B4206D1264964
:1012A0000C6826490A6826490A600BE025498B42EA
:1012B00007D12549086825490A6821490A6004467A
:1012C00000E0044622490C60019402931846FFF79F
:1012D00069FA029B019C10B94FF6FF7025E00122CC
:1012E000196862F30821196003F214010A68C2F355
:1012F000402111B14FF6FF7017E025461C461549F5
:101300002046FFF72BFA78B91149096859B135B968
:1013100006200B4C2468A0474FF6FF7005E0691EBD
:1013200008460546FFE7EAE70020DDF800E003B0E5
:10133000704700BF0054004000020020300200202F
:101340002C0200200058004004020020340200203B
:10135000080200200100030081B00168C1F3801081
:1013600001B0704781B00168C1F3401001B070470F
:1013700081B0ADF800100146BDF800000B68C3F362
:10138000C01202B9FAE70A1D106001B07047FFFFF2
:1013900081B0CDF800E00348FFF7E4FFDDF800E09E
:1013A00001B070470048004081B0CDF800E003482C
:1013B000FFF7D2FFDDF800E001B0704700380140D0
:1013C00081B0CDF800E00348FFF7C6FFDDF800E08C
:1013D00001B070470048004081B0CDF800E00348FC
:1013E000FFF768FEDDF800E001B070470044004000
:1013F00081B0CDF800E00348FFF7B4FFDDF800E06E
:1014000001B070470038014081B0CDF800E00348DA
:10141000FFF7A8FFDDF800E001B07047004400408E
:1014200081B0CDF800E00348FFF744FEDDF800E0AE
:1014300001B070470048004081B0CDF800E003489B
:10144000FFF78AFFDDF800E001B07047004400407C
:1014500081B0CDF800E081B20348FFF789FFDDF8E5
:1014600000E001B0704700BF0048004081B0CDF8F7
:1014700000E081B20348FFF77BFFDDF800E001B038
:10148000704700BF0044004081B0CDF800E081B259
:101490000348FFF76DFFDDF800E001B0704700BFC3
:1014A0000038014081B0CDF800E081B20348FFF779
:1014B0005FFFDDF800E001B0704700BF004C004066
:1014C00082B0CDF800E001A9087000F0B3FA01A9DC
:1014D000002301220C2000F03BFD00F001FE0DF185
:1014E0000501012301220C20FFF7F0FD00F0F8FDBB
:1014F0000DF105010978C8B2DDF800E002B07047CF
:1015000082B0CDF800E001A9087000F093FA01AABA
:101510000E4909780023C8B21146012200F018FDD7
:1015200000F0DEFD0DF10502084909780123C8B27B
:1015300011460122FFF7CAFD00F0D2FD0DF10501B1
:101540000978C8B2DDF800E002B070471E02002042
:1015500081B0CDF800E081B20348FFF709FFDDF864
:1015600000E001B0704700BF0050004081B0CDF8EE
:1015700000E008B413460A46C1B20448FFF7D4FBA2
:1015800001B0DDF800E001B0704700BF0058004036
:1015900081B0CDF800E00348FFF7DEFEDDF800E0A3
:1015A00001B07047004C004081B0CDF800E0034826
:1015B000FFF7D8FEDDF800E001B07047004C0040B6
:1015C00081B0CDF800E00348FFF774FDDDF800E0DE
:1015D00001B07047004C004081B0CDF800E00348F6
:1015E000FFF768FDDDF800E001B0704700500040F3
:1015F00081B0CDF800E008B413460A46C1B20448F1
:10160000FFF792FB01B0DDF800E001B0704700BFCA
:101610000054004081B0CDF800E00348FFF79CFE85
:10162000DDF800E001B070470050004081B0CDF817
:1016300000E00348FFF796FEDDF800E001B07047D8
:101640000050004081B0CDF800E0019D2C4610B460
:1016500008B493B28AB201460348FFF743FA02B0D6
:10166000DDF800E001B070470048004081B0CDF8DF
:1016700000E00A4601460348FFF73AFDDDF800E0C6
:1016800001B070470054004081B0CDF800E0044A3A
:1016900089B2FFF715FCDDF800E001B0704700BF2C
:1016A0001400080081B0CDF800E00348FFF7EEFD1C
:1016B000DDF800E001B070470054004081B0CDF883
:1016C00000E0019D2C4610B408B493B28AB20146E2
:1016D0000348FFF707FA02B0DDF800E001B07047F9
:1016E0000038014081B0CDF800E0019D2C4610B4D7
:1016F00008B493B28AB201460348FFF7F3F902B087
:10170000DDF800E001B070470044004081B0CDF842
:1017100000E00348FFF7BAFDDDF800E001B07047D4
:101720000058004081B0CDF800E00348FFF7C2FC4C
:10173000DDF800E001B070470038014081B0CDF81D
:1017400000E04FF0420289B2FFF7BAFBDDF800E09B
:1017500001B0704781B0CDF800E00178CCB2A0B202
:10176000034C2468A0470020DDF800E001B070477A
:101770002402002081B0002808BF19E006B554BF3C
:101780000146D0F100014FF09E0202D4521E4900E2
:10179000FCD580312CBF521C49004FEA512141EA4F
:1017A000C25100284CBF41F000400846BDE8064049
:1017B00001B0704781B0CDF800E0094902B440F2B1
:1017C000000340F2000240F20001FFF78BFF01B07E
:1017D000044A05490A600020DDF800E001B07047C6
:1017E000782B00006D1400002402002081B02DE948
:1017F000FA414FEA02244FEA42052D0E04D1002C93
:1018000018BF4FF000006CE044F00044FF2D5FD0A3
:101810004FEA9404002A48BF64424FEA00214FEA8D
:1018200040031B0E05D1002914BF4FF000001046E5
:1018300057E041F00041FF2B4BD04FEA91010028C7
:1018400048BF49425E1B41BF0F4621463C46764297
:1018500048BF2B46192E47BF44FA06F7C9194FF067
:10186000000803E0C6F11C0704FA07F8002904BFCA
:101870004FF0000035E046BF49424FF001074FF0FE
:101880000007A3F101034900FBD511F080040DD03E
:1018900001F0200548EA0508803128BF5B1C01F0F3
:1018A000400458EA040808BF21F480719B1CDCBF87
:1018B0004FF0000015E0FF2B0DD221F0FF014FEAA1
:1018C00041014FEA512040EAC35040EAC77008E0A6
:1018D00010464FEAD0774FEAC777FF204FEAC05053
:1018E0003843BDE8FA4101B07047FFFF81B0FAB557
:1018F00090EA02064CBF4FF000464FF0000601028E
:1019000043001B0E12BF41F000414FF000003BE0CE
:10191000FF2B35D05FEA02245FEA42055FEA1565D6
:1019200011BF44F000444FF0FF4030432CE0FF2D46
:1019300026D05B1B0020202764084908A14240EB09
:10194000000028BF091B7F1E04D0002918BF4900D2
:10195000F4D1B84010F0004F04BF4000B3F10103D0
:1019600080302CBF5B1C40007F33DCBF4FF0000099
:101970000AE0FF2B04D2400A40EAC350304303E0A0
:10198000FF27FF0556EA0700BDE8FA4001B070479F
:1019900085B0CDF800E08DF8080001210A2000F0A4
:1019A000ABFB00F09DFB01A904919DF80810491CB8
:1019B000C8B2FFF785FD0499087001A9491C04917C
:1019C0009DF80800FFF77CFD0499087001AB1978B9
:1019D000C8B2020292B2591C097842EA010108B267
:1019E000DDF800E005B0704784B0CDF800E0C2B289
:1019F00002A903918DF80420D0B2FFF781FD9DF874
:101A000004200399087002A9491C0391511CC8B213
:101A1000FFF776FD0399087002AB1978C8B202028D
:101A200092B2591C097842EA010108B2DDF800E0DF
:101A300004B0704782B0CDF800E040F20004ADF889
:101A40000440064C2468A047BDF9041041EA000098
:101A500000B2DDF800E002B0704700BF5402002081
:101A600000F230011C310A6803490A60011D0A684E
:101A700002490A60704700BF600200206402002033
:101A8000026806490A60011D0A6805490A6000F2F9
:101A900008010A6803490A60704700BF5402002029
:101AA000580200205C02002081B0CDF800E0A9E0DF
:101AB000012905D140F220016548FFF73FFE04E00F
:101AC00040F220016248FFF7DFFDBBE0012905D1AC
:101AD00040F208015F48FFF731FE04E040F20801E0
:101AE0005C48FFF7D1FDADE0012905D144F20001CA
:101AF0005948FFF723FE04E044F200015648FFF77F
:101B0000C3FD9FE0012905D140F200415148FFF794
:101B100015FE04E040F200414E48FFF7B5FD91E0AC
:101B2000012905D140F600014A48FFF707FE04E00D
:101B300040F600014748FFF7A7FD83E0012905D1E2
:101B400041F200014348FFF7F9FD04E041F20001D2
:101B50004048FFF799FD75E0012905D141F20001E8
:101B60003D48FFF7EBFD04E041F200013A48FFF782
:101B70008BFD67E0012905D140F600013648FFF7EB
:101B8000DDFD04E040F600013348FFF77DFD59E03C
:101B9000012905D140F240012F48FFF7CFFD04E0B5
:101BA00040F240012C48FFF76FFD4BE0012905D1C1
:101BB00040F220012848FFF7C1FD04E040F2200177
:101BC0002548FFF761FD3DE0012905D140F24001C4
:101BD0002248FFF7B3FD04E040F240011F48FFF741
:101BE00053FD2FE0012905D140F280011B48FFF78A
:101BF000A5FD04E040F280011848FFF745FD21E013
:101C0000012020E000283FF453AF01283FF45EAFED
:101C100002283FF469AF03283FF474AF04283FF46F
:101C20007FAF05283FF48AAF06283FF495AF072819
:101C3000A0D00828ACD00928B8D00A28C4D00B28D6
:101C4000D0D0DDE70020DDF800E001B0704700BF34
:101C5000000801400010014000140140000C014048
:101C600081B0CDF800E0016808460449FFF7FEFCAA
:101C70000020DDF800E001B0704700BFE42B000059
:101C800081B0CDF800E0094902B440F2000340F20F
:101C9000000240F20001FFF7D5FC01B0044A0549FB
:101CA0000A600020DDF800E001B07047A02A0000C3
:101CB000511400002402002081B0CDF800E0A9E01A
:101CC000012905D140F210016548FFF737FD04E016
:101CD00040F210016248FFF7D7FCBBE0012905D1B3
:101CE00040F204015F48FFF729FD04E040F20401DF
:101CF0005C48FFF7C9FCADE0012905D142F20001C3
:101D00005948FFF71BFD04E042F200015648FFF777
:101D1000BBFC9FE0012905D140F200415148FFF78B
:101D20000DFD04E040F200414E48FFF7ADFC91E0AC
:101D3000012905D140F600014A48FFF7FFFC04E005
:101D400040F600014748FFF79FFC83E0012905D1D9
:101D500041F200014348FFF7F1FC04E041F20001C9
:101D60004048FFF791FC75E0012905D140F20101DF
:101D70003B48FFF7E3FC04E040F201013848FFF77D
:101D800083FC67E0012905D140F200413648FFF7A6
:101D9000D5FC04E040F200413348FFF775FC59E000
:101DA000012905D140F200212F48FFF7C7FC04E0CC
:101DB00040F200212C48FFF767FC4BE0012905D1D8
:101DC00040F200112848FFF7B9FC04E040F200118E
:101DD0002548FFF759FC3DE0012905D140F24001BB
:101DE0002248FFF7ABFC04E040F240011F48FFF738
:101DF0004BFC2FE0012905D140F280011B48FFF781
:101E00009DFC04E040F280011848FFF73DFC21E012
:101E1000012020E000283FF453AF01283FF45EAFDB
:101E200002283FF469AF03283FF474AF04283FF45D
:101E30007FAF05283FF48AAF06283FF495AF072807
:101E4000A0D00828ACD00928B8D00A28C4D00B28C4
:101E5000D0D0DDE70020DDF800E001B0704700BF22
:101E6000000801400010014000140140000C014036
:101E700081B00A4681B200208DB21146052805D2F4
:101E80000B1820221A70401CC0B2F7E70B18002272
:101E90001A70401EC0B20C180A23B5FBF3F203FB04
:101EA000125292B2303222700A22B5FBF2F292B292
:101EB00095B202B902E0401EC0B2ECE701B0704733
:101EC00081B0CDF800E0016808460449FFF7CEFB79
:101ED0000020DDF800E001B0704700BFE42B0000F7
:101EE00081B0CDF800E0094902B440F2000340F2AD
:101EF000000240F20001FFF7F5FB01B0044A05497A
:101F00000A600020DDF800E001B07047782B000087
:101F10006D1400002402002081B0CDF800E00949D2
:101F200002B440F2000340F2000240F20001FFF769
:101F3000C5FB01B0044A05490A600020DDF800E055
:101F400001B070470C2B000089140000240200200F
:101F500082B0CDF800E040F20004ADF80440054C3A
:101F60002468A047BDF90440044320B2DDF800E036
:101F700002B070475802002084B0CDF800E0019014
:101F8000029103924320FFF72FFD019B188045200B
:101F9000FFF72AFD029B18804720FFF725FD039BD2
:101FA0001880DDF800E004B07047FFFF84B0CDF882
:101FB00000E00190029103920320FFF7E9FC019BEE
:101FC00018800520FFF7E4FC029B18800720FFF72C
:101FD000DFFC039B1880DDF800E004B07047FFFFD2
:101FE00081B006B54FEA40024FEA12627F3A44BF21
:101FF0004FF0000011E0D2F11F0209D94FEA002191
:1020000041F00041D14000284CBF4842084604E05E
:1020100000284FF0004058BF401EBDE8064001B008
:102020007047FFFF81B0CDF800E04120FFF7DCFCF6
:1020300000F056F8FFF79EFB054AFFF757FC054AEC
:10204000FFF7D4FB0046DDF800E001B0704700BFA9
:102050000000AA4300000C4241F6FF27C0F2B70778
:102060007F1EFDD100BF00BF00BF00BF00BF704793
:1020700081B0CDF800E00E46002183B2002805DAD9
:102080000121404280B280B28FB201E098B28FB29B
:102090003146FFF7EDFE06213446B8B2002908D9D3
:1020A00063184A1E92B2A21812781A70491E89B299
:1020B000F4E72022227070B1002081B2204642183D
:1020C0001278202A02D1491C89B2F8E74A1E92B23E
:1020D00083182D221A70DDF800E001B07047FFFF71
:1020E0004DF2BF47C0F201077F1EFDD100BF00BF08
:1020F00000BF00BF00BF704782B0CDF800E001AA6A
:102100001070521C1170FFF795FC01AA01231146B3
:1021100002220C20FFF71CFFDDF800E002B0704740
:1021200083B0CDF800E0024610460D228DF808205D
:102130000A228DF809201FE0FFF70CFB23E002784C
:102140002AB10190FFF706FB0198401CF7E71AE05F
:1021500002782AB10190FFF7FDFA0198401CF7E7D9
:1021600002AA1046FFF7F6FA0DF109021046FFF732
:10217000F1FA08E0062007E00029DDD00129DED0D1
:102180000229E5D0F6E70020DDF800E003B0704753
:1021900044F67F77C0F212077F1EFDD100BF00BF5B
:1021A00000BF00BF00BF704781B0CDF800E05FFA0C
:1021B00081F95FFA82FA0FE05FFA8AF15FFA89F03B
:1021C000FFF77AFD0DE05FFA8AF15FFA89F0FFF719
:1021D0006BFC06E0012004E00028EDD00128F2D0DD
:1021E000F8E7DDF800E001B07047FFFF81B0CDF8FF
:1021F00000E08B4609E05846FFF762FE0AE05846C9
:10220000FFF72EFD06E0012004E00028F3D00128AE
:10221000F5D0F8E7DDF800E001B0704781B0CDF807
:1022200000E011E00846FFF72BFD16E00846FFF737
:1022300057FE12E00846FFF76FFE0EE00846FFF774
:10224000B9FA0AE0012008E00028EBD00128EDD01F
:102250002028EFD03028F1D0F4E7DDF800E001B01D
:102260007047FFFF81B0CDF800E00446054B1A70BF
:102270000846FFF705FC2046FFF7F2FBDDF800E01B
:1022800001B070471E02002084B0CDF800E001903C
:10229000029103923B20FFF7A7FB019B18803D2092
:1022A000FFF7A2FB029B18803F20FFF79DFB039BDB
:1022B0001880DDF800E004B07047FFFF82B0CDF871
:1022C00000E001AA1070521C1170FFF7B3FB01ABC4
:1022D000054A127819460123D0B20222FFF738FED0
:1022E000DDF800E002B070471E02002081B04FF020
:1022F00000094FF0000CBDEB0A0F04DCBDEB0B0F27
:1023000001DBD446EA464BF8049BBBEB0A0FFAD13B
:10231000BCEB0A0F05DDE246D9F800B00BF1040B67
:10232000F1E701B07047FFFF81B01548006840F049
:102330000101134801601349134801601048016806
:10234000124801400E4801600D4801686FF480207A
:1023500001400B4801600C4801686FF4FE00014029
:1023600009480160064801686FF0A0500140044828
:1023700001604FF000010648016001B0704700BFE6
:10238000001002400000FFF004100240FFFFF6FEC4
:102390002C10024081B0CDF800E00122072100207E
:1023A000FFF702FF002201210020FFF7FDFE084891
:1023B00001460020FFF71AFF42F280510120FFF78B
:1023C0002DFFFFF7E5FEDDF800E001B0704700BF2C
:1023D000CC2C000081B01CF8019B0BF8019BBBEBDF
:1023E0000A0FF8D101B0704781B0CDF800E0692242
:1023F0002E492F48FFF736FFFFF772FE80216B2032
:10240000FFF75CFFFFF76CFE00211920FFF756FF76
:10241000FFF766FE03211A20FFF750FFFFF760FE6B
:1024200010211B20FFF74AFFFFF75AFE10211C2046
:10243000FFF744FFFFF754FE00212320FFF73EFF84
:10244000FFF74EFE02213720FFF738FFFFF748FE67
:1024500000213820FFF732FFFFF742FE00216A20FB
:10246000FFF72CFFFFF73CFE00216B20FFF726FF54
:10247000FFF736FE00216C20FFF720FFFFF730FE4C
:1024800001210A20FFF738FEFFF72AFE0948022142
:10249000FFF746FE08480221FFF742FE07480221E7
:1024A000FFF73EFEDDF800E001B07047C02C0000F1
:1024B000502C0000000000204D0000209A00002059
:1024C00081B0CDF800E0714A71497248FFF7DCFE37
:1024D000FFF706FE704A71497148FFF74DFDFFF79F
:1024E000FFFD704A70497148FFF760FDFFF7F8FD86
:1024F000FFF798FD6E490860FFF7F2FD6D48012176
:10250000FFF70EFE6348B0F900006B49FFF7B0FD1E
:1025100001216948FFF704FE68480121FFF700FE2A
:1025200067480121FFF7FCFD5D48B0F900006249F2
:10253000FFF79EFD01216048FFF7F2FD6148012190
:10254000FFF7EEFD60480121FFF7EAFD5748B0F9BB
:1025500000005949FFF78CFD01215748FFF7E0FDC6
:102560005A480121FFF7DCFD59480221FFF7D8FD49
:1025700058480121FFF7D4FD4548B0F900004E4905
:10258000FFF776FD01214C48FFF7CAFD52480121B3
:10259000FFF7C6FD51480121FFF7C2FD3F48B0F9E2
:1025A00000004549FFF764FD01214348FFF7B8FDEE
:1025B0004B480121FFF7B4FD4A480121FFF7B0FD68
:1025C0003948B0F900003C49FFF752FD01213A4873
:1025D000FFF7A6FD44480121FFF7A2FD4348012172
:1025E000FFF79EFD32480068FFF7FAFC00B232495F
:1025F000FFF73EFD01213048FFF792FD3C480221E4
:10260000FFF78EFD3B480121FFF78AFD1F48B0F917
:1026100000002949FFF72CFD01212748FFF780FD25
:1026200035480121FFF77CFD34480121FFF778FD93
:102630001948B0F900002049FFF71AFD01211E4892
:10264000FFF76EFD2E480121FFF76AFD2D4801219D
:10265000FFF766FD1348B0F900001749FFF708FDC2
:1026600001211548FFF75CFD27480121FFF758FDC0
:1026700026480221FFF754FD25480221FFF750FDAF
:10268000FFF7EAFCDDF800E001B07047100200201F
:102690000E0200200C02002016020020140200206E
:1026A000120200201C0200201A0200201802002042
:1026B00020020020E7000020F2000020010100209D
:1026C0000701002011010020170100202001002037
:1026D0002401002036010020410100204701002094
:1026E00051010020570100206001002066010020F8
:1026F0006D010020730100207E0100208401002074
:102700008E010020940100209D010020A1010020E5
:10271000B301002081B0FEE701B0704781B00249EB
:102720000248016001B070474019010028020020F2
:1027300000F00EF800F00EFBFFF7F0FF00F0CAFA11
:10274000FFF728FEFFF750FEFFF7BAFEFCE7FEE7B3
:1027500081B0CDF800E0464A464B474C47494BF61E
:102760008030814206D94648006840F00201444862
:10277000016011E045F6C050814206D9404800682A
:1027800040F001013E48016006E03D4801686FF0FD
:10279000070001403A480160FFF7C6FD3948036071
:1027A00039480460394802EA00013948016002F002
:1027B000010040B119463648006800F002000028C8
:1027C00000D1F8E700E0194602F4803040B10B4632
:1027D0002F48006800F40030002800D1F8E700E03E
:1027E0000B4602F0805068B12948006840F08051E3
:1027F000274801602648006800F00050002800D1FA
:10280000F8E7FFE702F0806078B12148006840F007
:1028100080611F48016011461A461D48006800F09B
:102820000060002800D1F8E701E011461A4601F0E7
:10283000807070B11648006840F0807114480160E3
:1028400011461348006800F0007000B9F9E70A4625
:10285000FFE70C48006800F00C01900000F00C004D
:10286000814200D0F5E7DDF800E001B0704700BF1D
:102870008100010502841D00440601004019010089
:1028800000200240041002402C100240FFFF0F0005
:10289000001002402D2D2D2D2D2D2D2D2D2D2D2DCA
:1028A0002D2D2D2D2D2D2D2D2D2D2D2D2D2D2D2D58
:1028B0002D2D2D2D2D2D2D2D2D2D2D2D2D2D2D2D48
:1028C0002D2D2D2D2D2D2D2D2D2D2D2D2D2D2D2D38
:1028D0002D2D2D2D2D2D2D2D2D2D2D2D2D2D2D2D28
:1028E000007C2020202020416363656C2020202074
:1028F0002020207C202020202020204779726F205B
:10290000202020202020207C202020202020204D3E
:10291000616720202020202020207C2020202020D3
:10292000202054656D702E20B04320207C002D2D7A
:102930002D2D2D2D2D2D2D2D2D2D2D2D2D2D2D2DC7
:102940002D2D2D2D2D2D2D2D2D2D2D2D2D2D2D2DB7
:102950002D2D2D2D2D2D2D2D2D2D2D2D2D2D2D2DA7
:102960002D2D2D2D2D2D2D2D2D2D2D2D2D2D2D2D97
:102970002D2D2D2D2D2D2D2D2D2D00204163636509
:102980006C2058203A000000000000000000000009
:10299000000000000020207C202000204779726F7A
:1029A0002058203A0020207C202000204D61672004
:1029B00058203A0020202A002A2A2A2A2A2A2A2AAB
:1029C0002A2A2A2A2A2A2A2A2A0020416363656C95
:1029D0002059203A0020207C202000204779726F67
:1029E0002059203A0020207C202000204D616720C3
:1029F00059203A0020202A20200054656D702E3A7C
:102A000000B0202A20200020416363656C205A20FA
:102A10003A0020207C202000204779726F205A2025
:102A20003A0020207C202000204D6167205A203A67
:102A30000020202A002A2A2A2A2A2A2A2A2A2A2A5E
:102A40002A2A2A2A2A2A002D2D2D2D2D2D2D2D2DF5
:102A50002D2D2D2D2D2D2D2D2D2D2D2D2D2D2D2DA6
:102A60002D2D2D2D2D2D2D2D2D2D2D2D2D2D2D2D96
:102A70002D2D2D2D2D2D2D2D2D2D2D2D2D2D2D2D86
:102A80002D2D2D2D2D2D2D2D2D2D2D2D2D2D2D2D76
:102A90002D2D2D00000000000000000000000000AF
:102AA0003800000039000000FFFFFFFF00000000B9
:102AB0000000000000000000000000000000000016
:102AC0000000000000000000000000000000000006
:102AD00000000000180800001800000000000000BE
:102AE00000000000000000000000000000000000E6
:102AF00000000000000000000000000000000000D6
:102B00000000000000000000300014080900000070
:102B10000A000000FFFFFFFF0000000000000000AF
:102B200000000000000000000000000000000000A5
:102B30000000000000000000000000000000000095
:102B4000180800001800000000000000000000004D
:102B50000000000000000000000000000000000075
:102B60000000000000000000000000000000000065
:102B700000000000040000003500000036000000E6
:102B8000FFFFFFFF00000000000000000000000049
:102B90000000000000000000000000000000000035
:102BA0000000000000000000000000001808000005
:102BB00018000000000000000000000000000000FD
:102BC0000000000000000000000000000000000005
:102BD00000000000000000000000000000000000F5
:102BE000080000081600000017000000FFFFFFFFAC
:102BF00000000000000000000000000000000000D5
:102C000000000000000000000000000000000000C4
:102C10000000000000000000280800002808000054
:102C200000000000000000000000000000000000A4
:102C30000000000000000000000000000000000094
:102C40000000000000000000000000000200000082
:102C5000F1060000E5060000D9060000FD060000B0
:102C6000210700001507000009070000CD0600003D
:102C7000910600009D06000085060000C1060000C8
:102C8000FFFFFFFFFFFFFFFFFFFFFFFFFFFFFFFF54
:102C9000FFFFFFFFFFFFFFFFFFFFFFFFFFFFFFFF44
:102CA000FFFFFFFFFFFFFFFFFFFFFFFFFFFFFFFF34
:102CB00000000000010203040102030406070809E2
:102CC000A5160000F115000081070000A086010094
:102CD0000204060800B5DFF814B0DFF814A0DFF82E
:102CE00014C0FFF777FB00BD704700BF0000002055
:102CF0000C02002094280000FFFFFFFFFFFFFFFFF2
:102D0000FFFFFFFFFFFFFFFFFFFFFFFFFFFFFFFFD3
:102D1000FFFFFFFFFFFFFFFFFFFFFFFFFFFFFFFFC3
:102D2000FFFFFFFFFFFFFFFFFFFFFFFFFFFFFFFFB3
:102D3000FFFFFFFFFFFFFFFFFFFFFFFFFFFFFFFFA3
:102D4000FFFFFFFFFFFFFFFFFFFFFFFFFFFFFFFF93
:102D5000FFFFFFFF00B5DFF810B0DFF810A0FFF7AE
:102D6000C5FA00BD704700BF0000002068020020C7
:00000001FF
